{
  "contractName": "Database",
  "abi": [
    {
      "anonymous": false,
      "inputs": [
        {
          "indexed": false,
          "internalType": "address",
          "name": "senderID",
          "type": "address"
        },
        {
          "indexed": false,
          "internalType": "uint256",
          "name": "id",
          "type": "uint256"
        },
        {
          "indexed": false,
          "internalType": "string",
          "name": "_query",
          "type": "string"
        },
        {
          "indexed": false,
          "internalType": "string",
          "name": "_status",
          "type": "string"
        }
      ],
      "name": "LogNewQueryInfo",
      "type": "event"
    },
    {
      "inputs": [
        {
          "internalType": "address",
          "name": "",
          "type": "address"
        }
      ],
      "name": "registeredUsers",
      "outputs": [
        {
          "internalType": "uint256",
          "name": "userId",
          "type": "uint256"
        }
      ],
      "stateMutability": "view",
      "type": "function",
      "constant": true
    },
    {
      "inputs": [
        {
          "internalType": "uint256",
          "name": "userId",
          "type": "uint256"
        }
      ],
      "name": "registerUser",
      "outputs": [],
      "stateMutability": "nonpayable",
      "type": "function"
    },
    {
      "inputs": [
        {
          "internalType": "uint256",
          "name": "userId",
          "type": "uint256"
        }
      ],
      "name": "loginUser",
      "outputs": [
        {
          "internalType": "bool",
          "name": "",
          "type": "bool"
        }
      ],
      "stateMutability": "view",
      "type": "function",
      "constant": true
    },
    {
      "inputs": [
        {
          "internalType": "string",
          "name": "query",
          "type": "string"
        },
        {
          "internalType": "string",
          "name": "status",
          "type": "string"
        }
      ],
      "name": "LogInfo",
      "outputs": [],
      "stateMutability": "nonpayable",
      "type": "function"
    }
  ],
  "bytecode": "0x608060405234801561001057600080fd5b50610762806100206000396000f3fe608060405234801561001057600080fd5b506004361061004c5760003560e01c80630e50cee5146100515780631bbfae0e14610081578063b032b94d1461009d578063b6f56e79146100b9575b600080fd5b61006b60048036038101906100669190610328565b6100e9565b604051610078919061036e565b60405180910390f35b61009b600480360381019061009691906103b5565b610107565b005b6100b760048036038101906100b29190610528565b6101d6565b005b6100d360048036038101906100ce91906103b5565b610258565b6040516100e091906105bb565b60405180910390f35b60006020528060005260406000206000915090508060000154905081565b8060008060003373ffffffffffffffffffffffffffffffffffffffff1673ffffffffffffffffffffffffffffffffffffffff168152602001908152602001600020600001541461018c576040517f08c379a000000000000000000000000000000000000000000000000000000000815260040161018390610633565b60405180910390fd5b816000803373ffffffffffffffffffffffffffffffffffffffff1673ffffffffffffffffffffffffffffffffffffffff168152602001908152602001600020600001819055505050565b7fb97c93211f847cd8c4a453ec24b9fa5641f6e5c9c3bdfaebfe3047078479946b336000803373ffffffffffffffffffffffffffffffffffffffff1673ffffffffffffffffffffffffffffffffffffffff16815260200190815260200160002060000154848460405161024c94939291906106d9565b60405180910390a15050565b6000816000803373ffffffffffffffffffffffffffffffffffffffff1673ffffffffffffffffffffffffffffffffffffffff1681526020019081526020016000206000015414156102ac57600190506102b1565b600090505b919050565b6000604051905090565b600080fd5b600080fd5b600073ffffffffffffffffffffffffffffffffffffffff82169050919050565b60006102f5826102ca565b9050919050565b610305816102ea565b811461031057600080fd5b50565b600081359050610322816102fc565b92915050565b60006020828403121561033e5761033d6102c0565b5b600061034c84828501610313565b91505092915050565b6000819050919050565b61036881610355565b82525050565b6000602082019050610383600083018461035f565b92915050565b61039281610355565b811461039d57600080fd5b50565b6000813590506103af81610389565b92915050565b6000602082840312156103cb576103ca6102c0565b5b60006103d9848285016103a0565b91505092915050565b600080fd5b600080fd5b6000601f19601f8301169050919050565b7f4e487b7100000000000000000000000000000000000000000000000000000000600052604160045260246000fd5b610435826103ec565b810181811067ffffffffffffffff82111715610454576104536103fd565b5b80604052505050565b60006104676102b6565b9050610473828261042c565b919050565b600067ffffffffffffffff821115610493576104926103fd565b5b61049c826103ec565b9050602081019050919050565b82818337600083830152505050565b60006104cb6104c684610478565b61045d565b9050828152602081018484840111156104e7576104e66103e7565b5b6104f28482856104a9565b509392505050565b600082601f83011261050f5761050e6103e2565b5b813561051f8482602086016104b8565b91505092915050565b6000806040838503121561053f5761053e6102c0565b5b600083013567ffffffffffffffff81111561055d5761055c6102c5565b5b610569858286016104fa565b925050602083013567ffffffffffffffff81111561058a576105896102c5565b5b610596858286016104fa565b9150509250929050565b60008115159050919050565b6105b5816105a0565b82525050565b60006020820190506105d060008301846105ac565b92915050565b600082825260208201905092915050565b7f5573657220616c72656164792072656769737465726564000000000000000000600082015250565b600061061d6017836105d6565b9150610628826105e7565b602082019050919050565b6000602082019050818103600083015261064c81610610565b9050919050565b61065c816102ea565b82525050565b600081519050919050565b60005b8381101561068b578082015181840152602081019050610670565b8381111561069a576000848401525b50505050565b60006106ab82610662565b6106b581856105d6565b93506106c581856020860161066d565b6106ce816103ec565b840191505092915050565b60006080820190506106ee6000830187610653565b6106fb602083018661035f565b818103604083015261070d81856106a0565b9050818103606083015261072181846106a0565b90509594505050505056fea264697066735822122011aebd986124952deb8117079c2307b95eda12824cd63965df0e7f1451410d3764736f6c63430008090033",
  "immutableReferences": {},
  "source": "pragma solidity ^0.8.9;\r\n\r\ncontract Database{\r\n\r\n    struct User {\r\n        uint userId;\r\n    }\r\n\r\n    event LogNewQueryInfo(address senderID, uint id, string _query, string _status);\r\n\r\n    mapping(address => User) public registeredUsers;\r\n\r\n    modifier checkUser(uint userId) {\r\n        require(registeredUsers[msg.sender].userId == 0, \"User already registered\");\r\n        _;\r\n    }\r\n\r\n    function registerUser(uint userId) public checkUser(userId) {\r\n        registeredUsers[msg.sender].userId = userId;\r\n    }\r\n\r\n    function loginUser(uint userId) public view returns (bool){\r\n        if(registeredUsers[msg.sender].userId == userId){\r\n            return true;\r\n        }else{\r\n            return false;\r\n        }\r\n    }\r\n\r\n    function LogInfo(string memory query, string memory status) public{\r\n        emit LogNewQueryInfo(msg.sender, registeredUsers[msg.sender].userId, query, status);\r\n    }\r\n}",
  "sourcePath": "D:\\Blockchain\\block-DB\\Contract\\contracts\\Database.sol",
  "compiler": {
    "name": "solc",
    "version": "0.8.9+commit.e5eed63a.Emscripten.clang"
  },
  "schemaVersion": "3.4.3",
  "updatedAt": "2021-11-22T17:44:02.386Z",
  "networkType": "ethereum",
  "devdoc": {
    "kind": "dev",
    "methods": {},
    "version": 1
  },
  "userdoc": {
    "kind": "user",
    "methods": {},
    "version": 1
  }
}