{
  "contractName": "Database",
  "abi": [
    {
      "anonymous": false,
      "inputs": [
        {
          "indexed": false,
          "internalType": "address",
          "name": "senderID",
          "type": "address"
        },
        {
          "indexed": false,
          "internalType": "uint256",
          "name": "id",
          "type": "uint256"
        },
        {
          "indexed": false,
          "internalType": "string",
          "name": "_query",
          "type": "string"
        }
      ],
      "name": "LogNewQueryInfo",
      "type": "event"
    },
    {
      "inputs": [
        {
          "internalType": "address",
          "name": "",
          "type": "address"
        }
      ],
      "name": "registeredUsers",
      "outputs": [
        {
          "internalType": "uint256",
          "name": "userId",
          "type": "uint256"
        }
      ],
      "stateMutability": "view",
      "type": "function",
      "constant": true
    },
    {
      "inputs": [
        {
          "internalType": "uint256",
          "name": "userId",
          "type": "uint256"
        }
      ],
      "name": "registerUser",
      "outputs": [],
      "stateMutability": "nonpayable",
      "type": "function"
    },
    {
      "inputs": [
        {
          "internalType": "uint256",
          "name": "userId",
          "type": "uint256"
        }
      ],
      "name": "loginUser",
      "outputs": [
        {
          "internalType": "bool",
          "name": "",
          "type": "bool"
        }
      ],
      "stateMutability": "view",
      "type": "function",
      "constant": true
    },
    {
      "inputs": [
        {
          "internalType": "string",
          "name": "query",
          "type": "string"
        }
      ],
      "name": "LogInfo",
      "outputs": [],
      "stateMutability": "nonpayable",
      "type": "function"
    }
  ],
  "bytecode": "0x608060405234801561001057600080fd5b5061071b806100206000396000f3fe608060405234801561001057600080fd5b506004361061004c5760003560e01c80630e50cee5146100515780631bbfae0e14610081578063b6f56e791461009d578063fee95eca146100cd575b600080fd5b61006b60048036038101906100669190610325565b6100e9565b604051610078919061036b565b60405180910390f35b61009b600480360381019061009691906103b2565b610107565b005b6100b760048036038101906100b291906103b2565b6101d6565b6040516100c491906103fa565b60405180910390f35b6100e760048036038101906100e2919061055b565b610234565b005b60006020528060005260406000206000915090508060000154905081565b8060008060003373ffffffffffffffffffffffffffffffffffffffff1673ffffffffffffffffffffffffffffffffffffffff168152602001908152602001600020600001541461018c576040517f08c379a000000000000000000000000000000000000000000000000000000000815260040161018390610601565b60405180910390fd5b816000803373ffffffffffffffffffffffffffffffffffffffff1673ffffffffffffffffffffffffffffffffffffffff168152602001908152602001600020600001819055505050565b6000816000803373ffffffffffffffffffffffffffffffffffffffff1673ffffffffffffffffffffffffffffffffffffffff16815260200190815260200160002060000154141561022a576001905061022f565b600090505b919050565b7ffa508473f07e2ed56d2ea690a94a3630d697621581b13e836a37cb08b57ec99c336000803373ffffffffffffffffffffffffffffffffffffffff1673ffffffffffffffffffffffffffffffffffffffff16815260200190815260200160002060000154836040516102a8939291906106a7565b60405180910390a150565b6000604051905090565b600080fd5b600080fd5b600073ffffffffffffffffffffffffffffffffffffffff82169050919050565b60006102f2826102c7565b9050919050565b610302816102e7565b811461030d57600080fd5b50565b60008135905061031f816102f9565b92915050565b60006020828403121561033b5761033a6102bd565b5b600061034984828501610310565b91505092915050565b6000819050919050565b61036581610352565b82525050565b6000602082019050610380600083018461035c565b92915050565b61038f81610352565b811461039a57600080fd5b50565b6000813590506103ac81610386565b92915050565b6000602082840312156103c8576103c76102bd565b5b60006103d68482850161039d565b91505092915050565b60008115159050919050565b6103f4816103df565b82525050565b600060208201905061040f60008301846103eb565b92915050565b600080fd5b600080fd5b6000601f19601f8301169050919050565b7f4e487b7100000000000000000000000000000000000000000000000000000000600052604160045260246000fd5b6104688261041f565b810181811067ffffffffffffffff8211171561048757610486610430565b5b80604052505050565b600061049a6102b3565b90506104a6828261045f565b919050565b600067ffffffffffffffff8211156104c6576104c5610430565b5b6104cf8261041f565b9050602081019050919050565b82818337600083830152505050565b60006104fe6104f9846104ab565b610490565b90508281526020810184848401111561051a5761051961041a565b5b6105258482856104dc565b509392505050565b600082601f83011261054257610541610415565b5b81356105528482602086016104eb565b91505092915050565b600060208284031215610571576105706102bd565b5b600082013567ffffffffffffffff81111561058f5761058e6102c2565b5b61059b8482850161052d565b91505092915050565b600082825260208201905092915050565b7f5573657220616c72656164792072656769737465726564000000000000000000600082015250565b60006105eb6017836105a4565b91506105f6826105b5565b602082019050919050565b6000602082019050818103600083015261061a816105de565b9050919050565b61062a816102e7565b82525050565b600081519050919050565b60005b8381101561065957808201518184015260208101905061063e565b83811115610668576000848401525b50505050565b600061067982610630565b61068381856105a4565b935061069381856020860161063b565b61069c8161041f565b840191505092915050565b60006060820190506106bc6000830186610621565b6106c9602083018561035c565b81810360408301526106db818461066e565b905094935050505056fea2646970667358221220080c94e6763be3bff0e02f1b45735a628b2fa087fda000ef011cf42aaddac58164736f6c63430008090033",
  "immutableReferences": {},
  "source": "pragma solidity ^0.8.9;\r\n\r\ncontract Database{\r\n\r\n    struct User {\r\n        uint userId;\r\n    }\r\n\r\n    event LogNewQueryInfo(address senderID, uint id, string _query);\r\n\r\n    mapping(address => User) public registeredUsers;\r\n\r\n    modifier checkUser(uint userId) {\r\n        require(registeredUsers[msg.sender].userId == 0, \"User already registered\");\r\n        _;\r\n    }\r\n\r\n    function registerUser(uint userId) public checkUser(userId) {\r\n        registeredUsers[msg.sender].userId = userId;\r\n    }\r\n\r\n    function loginUser(uint userId) public view returns (bool){\r\n        if(registeredUsers[msg.sender].userId == userId){\r\n            return true;\r\n        }else{\r\n            return false;\r\n        }\r\n    }\r\n\r\n    function LogInfo(string memory query) public{\r\n        emit LogNewQueryInfo(msg.sender, registeredUsers[msg.sender].userId, query);\r\n    }\r\n}",
  "sourcePath": "D:\\Blockchain\\block-DB\\Contract\\contracts\\Database.sol",
  "compiler": {
    "name": "solc",
    "version": "0.8.9+commit.e5eed63a.Emscripten.clang"
  },
  "schemaVersion": "3.4.3",
  "updatedAt": "2021-11-28T16:20:28.230Z",
  "networkType": "ethereum",
  "devdoc": {
    "kind": "dev",
    "methods": {},
    "version": 1
  },
  "userdoc": {
    "kind": "user",
    "methods": {},
    "version": 1
  }
}