{
  "contractName": "DatabaseRedesign",
  "abi": [
    {
      "inputs": [],
      "stateMutability": "nonpayable",
      "type": "constructor"
    },
    {
      "anonymous": false,
      "inputs": [
        {
          "indexed": false,
          "internalType": "address",
          "name": "senderID",
          "type": "address"
        },
        {
          "indexed": false,
          "internalType": "string",
          "name": "id",
          "type": "string"
        },
        {
          "indexed": false,
          "internalType": "string",
          "name": "query",
          "type": "string"
        },
        {
          "indexed": false,
          "internalType": "string",
          "name": "status",
          "type": "string"
        }
      ],
      "name": "LogNewQueryInfo",
      "type": "event"
    },
    {
      "inputs": [
        {
          "internalType": "string",
          "name": "_id",
          "type": "string"
        },
        {
          "internalType": "string",
          "name": "_query",
          "type": "string"
        },
        {
          "internalType": "string",
          "name": "_status",
          "type": "string"
        }
      ],
      "name": "setAll",
      "outputs": [],
      "stateMutability": "nonpayable",
      "type": "function"
    },
    {
      "inputs": [],
      "name": "logAllInfo",
      "outputs": [],
      "stateMutability": "nonpayable",
      "type": "function"
    },
    {
      "inputs": [
        {
          "internalType": "string",
          "name": "_id",
          "type": "string"
        },
        {
          "internalType": "string",
          "name": "_query",
          "type": "string"
        },
        {
          "internalType": "string",
          "name": "_status",
          "type": "string"
        }
      ],
      "name": "setAllAndLog",
      "outputs": [],
      "stateMutability": "nonpayable",
      "type": "function"
    }
  ],
  "bytecode": "0x608060405234801561001057600080fd5b5061068c806100206000396000f3fe608060405234801561001057600080fd5b50600436106100415760003560e01c806357e408031461004657806369c63f9714610050578063be1666bc1461006c575b600080fd5b61004e610088565b005b61006a6004803603810190610065919061040d565b610092565b005b6100866004803603810190610081919061040d565b610124565b005b6100906101ae565b565b336000806101000a81548173ffffffffffffffffffffffffffffffffffffffff021916908373ffffffffffffffffffffffffffffffffffffffff16021790555082600190805190602001906100e8929190610210565b5081600290805190602001906100ff929190610210565b508060039080519060200190610116929190610210565b5061011f6101ae565b505050565b336000806101000a81548173ffffffffffffffffffffffffffffffffffffffff021916908373ffffffffffffffffffffffffffffffffffffffff160217905550826001908051906020019061017a929190610210565b508160029080519060200190610191929190610210565b5080600390805190602001906101a8929190610210565b50505050565b7f0bfab5d69ffb60e8eff500604bf05dbc6f29cecdaa55f80fa13fc9ab2bdb849360008054906101000a900473ffffffffffffffffffffffffffffffffffffffff1660016002600360405161020694939291906105fc565b60405180910390a1565b82805461021c90610524565b90600052602060002090601f01602090048101928261023e5760008555610285565b82601f1061025757805160ff1916838001178555610285565b82800160010185558215610285579182015b82811115610284578251825591602001919060010190610269565b5b5090506102929190610296565b5090565b5b808211156102af576000816000905550600101610297565b5090565b6000604051905090565b600080fd5b600080fd5b600080fd5b600080fd5b6000601f19601f8301169050919050565b7f4e487b7100000000000000000000000000000000000000000000000000000000600052604160045260246000fd5b61031a826102d1565b810181811067ffffffffffffffff82111715610339576103386102e2565b5b80604052505050565b600061034c6102b3565b90506103588282610311565b919050565b600067ffffffffffffffff821115610378576103776102e2565b5b610381826102d1565b9050602081019050919050565b82818337600083830152505050565b60006103b06103ab8461035d565b610342565b9050828152602081018484840111156103cc576103cb6102cc565b5b6103d784828561038e565b509392505050565b600082601f8301126103f4576103f36102c7565b5b813561040484826020860161039d565b91505092915050565b600080600060608486031215610426576104256102bd565b5b600084013567ffffffffffffffff811115610444576104436102c2565b5b610450868287016103df565b935050602084013567ffffffffffffffff811115610471576104706102c2565b5b61047d868287016103df565b925050604084013567ffffffffffffffff81111561049e5761049d6102c2565b5b6104aa868287016103df565b9150509250925092565b600073ffffffffffffffffffffffffffffffffffffffff82169050919050565b60006104df826104b4565b9050919050565b6104ef816104d4565b82525050565b7f4e487b7100000000000000000000000000000000000000000000000000000000600052602260045260246000fd5b6000600282049050600182168061053c57607f821691505b602082108114156105505761054f6104f5565b5b50919050565b600082825260208201905092915050565b60008190508160005260206000209050919050565b6000815461058981610524565b6105938186610556565b945060018216600081146105ae57600181146105c0576105f3565b60ff19831686526020860193506105f3565b6105c985610567565b60005b838110156105eb578154818901526001820191506020810190506105cc565b808801955050505b50505092915050565b600060808201905061061160008301876104e6565b8181036020830152610623818661057c565b90508181036040830152610637818561057c565b9050818103606083015261064b818461057c565b90509594505050505056fea264697066735822122031d29f58316685e1ba4b4940c21f857ebf849f292c1f07e51ae428e2d990dd6364736f6c63430008090033",
  "immutableReferences": {},
  "source": "// SPDX-License-Identifier: MIT\r\npragma solidity >=0.4.22 <=0.8.9;\r\n\r\ncontract DatabaseRedesign{\r\n    address private senderID;\r\n    string private id;\r\n    string private query;\r\n    string private status;\r\n\r\n    event LogNewQueryInfo(address senderID, string id, string query, string status);\r\n\r\n    constructor() public{\r\n        \r\n    }\r\n\r\n    function setAll(string memory _id, \r\n        string memory _query, string memory _status) public{\r\n            senderID = msg.sender;\r\n            id = _id;\r\n            query = _query;\r\n            status = _status;\r\n    }\r\n\r\n    function logAllInfo() public{\r\n        LogInfo();\r\n    }\r\n\r\n    function setAllAndLog(string memory _id, \r\n        string memory _query, string memory _status) public{\r\n            senderID = msg.sender;\r\n            id = _id;\r\n            query = _query;\r\n            status = _status;\r\n            LogInfo();\r\n    }\r\n\r\n    function LogInfo() private{\r\n        emit LogNewQueryInfo(senderID, id, query, status);\r\n    }\r\n}",
  "sourcePath": "D:\\Blockchain\\soks files\\Contract\\contracts\\DatabaseRedesign.sol",
  "compiler": {
    "name": "solc",
    "version": "0.8.9+commit.e5eed63a.Emscripten.clang"
  },
  "schemaVersion": "3.4.3",
  "updatedAt": "2021-11-10T19:21:27.813Z",
  "networkType": "ethereum",
  "devdoc": {
    "kind": "dev",
    "methods": {},
    "version": 1
  },
  "userdoc": {
    "kind": "user",
    "methods": {},
    "version": 1
  }
}