{
  "contractName": "Database",
  "abi": [
    {
      "inputs": [
        {
          "internalType": "string",
          "name": "_query",
          "type": "string"
        }
      ],
      "payable": false,
      "stateMutability": "nonpayable",
      "type": "constructor"
    },
    {
      "anonymous": false,
      "inputs": [
        {
          "indexed": false,
          "internalType": "string",
          "name": "_query",
          "type": "string"
        },
        {
          "indexed": false,
          "internalType": "address",
          "name": "_id",
          "type": "address"
        },
        {
          "indexed": false,
          "internalType": "enum Database.QueryStatus",
          "name": "status",
          "type": "uint8"
        }
      ],
      "name": "LogNewQuery",
      "type": "event"
    },
    {
      "constant": false,
      "inputs": [],
      "name": "queryDB",
      "outputs": [],
      "payable": false,
      "stateMutability": "nonpayable",
      "type": "function"
    },
    {
      "constant": true,
      "inputs": [],
      "name": "Status",
      "outputs": [
        {
          "internalType": "string",
          "name": "",
          "type": "string"
        }
      ],
      "payable": false,
      "stateMutability": "view",
      "type": "function"
    }
  ],
  "bytecode": "0x608060405234801561001057600080fd5b506040516107a53803806107a58339818101604052602081101561003357600080fd5b810190808051604051939291908464010000000082111561005357600080fd5b8382019150602082018581111561006957600080fd5b825186600182028301116401000000008211171561008657600080fd5b8083526020830192505050908051906020019080838360005b838110156100ba57808201518184015260208101905061009f565b50505050905090810190601f1680156100e75780820380516001836020036101000a031916815260200191505b50604052505050806001908051906020019061010492919061016f565b50336000806101000a81548173ffffffffffffffffffffffffffffffffffffffff021916908373ffffffffffffffffffffffffffffffffffffffff1602179055506000600260006101000a81548160ff0219169083600281111561016457fe5b021790555050610214565b828054600181600116156101000203166002900490600052602060002090601f016020900481019282601f106101b057805160ff19168380011785556101de565b828001600101855582156101de579182015b828111156101dd5782518255916020019190600101906101c2565b5b5090506101eb91906101ef565b5090565b61021191905b8082111561020d5760008160009055506001016101f5565b5090565b90565b610582806102236000396000f3fe608060405234801561001057600080fd5b50600436106100365760003560e01c8063180f85fc1461003b57806345f09ce914610045575b600080fd5b6100436100c8565b005b61004d6100e0565b6040518080602001828103825283818151815260200191508051906020019080838360005b8381101561008d578082015181840152602081019050610072565b50505050905090810190601f1680156100ba5780820380516001836020036101000a031916815260200191505b509250505060405180910390f35b60606100d2610105565b90506100dd81610142565b50565b60606000600260009054906101000a900460ff1690506100ff816101af565b91505090565b60606040518060400160405280600981526020017f506572666f726d65640000000000000000000000000000000000000000000000815250905090565b610181816040518060400160405280600581526020017f4572726f720000000000000000000000000000000000000000000000000000008152506102ca565b1561019b5761018e6103cc565b6101966103f1565b6101ac565b6101a3610527565b6101ab6103f1565b5b50565b60608160028111156101bd57fe5b600060028111156101ca57fe5b141561020d576040518060400160405280600781526020017f50656e64696e670000000000000000000000000000000000000000000000000081525090506102c5565b81600281111561021957fe5b6001600281111561022657fe5b1415610269576040518060400160405280600981526020017f506572666f726d6564000000000000000000000000000000000000000000000081525090506102c5565b81600281111561027557fe5b60028081111561028157fe5b14156102c4576040518060400160405280600581526020017f4572726f7200000000000000000000000000000000000000000000000000000081525090506102c5565b5b919050565b600081518351146102de57600090506103c6565b816040516020018082805190602001908083835b6020831061031557805182526020820191506020810190506020830392506102f2565b6001836020036101000a03801982511681845116808217855250505050505090500191505060405160208183030381529060405280519060200120836040516020018082805190602001908083835b602083106103875780518252602082019150602081019050602083039250610364565b6001836020036101000a038019825116818451168082178552505050505050905001915050604051602081830303815290604052805190602001201490505b92915050565b60028060006101000a81548160ff021916908360028111156103ea57fe5b0217905550565b7f3c77e1c2dbca24ba6726292c875ed485bb64411ac994b4292f60a4144acd317360016000809054906101000a900473ffffffffffffffffffffffffffffffffffffffff16600260009054906101000a900460ff1660405180806020018473ffffffffffffffffffffffffffffffffffffffff1673ffffffffffffffffffffffffffffffffffffffff16815260200183600281111561048c57fe5b60ff1681526020018281038252858181546001816001161561010002031660029004815260200191508054600181600116156101000203166002900480156105155780601f106104ea57610100808354040283529160200191610515565b820191906000526020600020905b8154815290600101906020018083116104f857829003601f168201915b505094505050505060405180910390a1565b6001600260006101000a81548160ff0219169083600281111561054657fe5b021790555056fea265627a7a7231582021e4f2c7c14c6424a4898af3a193c416364919b6c51f9b58ebe7a7bb065e5d7c64736f6c63430005100032",
  "source": "// SPDX-License-Identifier: MIT\r\npragma solidity >=0.4.22 <=0.8.9;\r\n\r\ncontract Database\r\n{\r\n    address private id; //User credentials\r\n    string private query; //Users query\r\n\r\n    enum QueryStatus { Pending, Performed, Error } // Our predefined values for a query status as enums\r\n\r\n    QueryStatus private status; // Save enum QueryStatus in variable status\r\n\r\n    event LogNewQuery(string _query, address _id, QueryStatus status); // Event to launch when query has been performmed\r\n\r\n    // This initializes our contract state (sets enum status to Pending once the program starts)\r\n    constructor(string memory _query) public{\r\n        query = _query;\r\n        id = msg.sender;\r\n        status = QueryStatus.Pending;\r\n    }\r\n\r\n    // Executes the query through performQuery\r\n    function queryDB() public {\r\n        // Call to database\r\n        string memory result = performQuery();\r\n        \r\n        // Check the result of the query\r\n        checkQueryResult(result);\r\n    }\r\n\r\n    // Sends query to DB if query does not succeed then must set status to error\r\n    // If query completes must set status to performed\r\n    function performQuery() internal pure returns (string memory queryResult){\r\n        return \"Performed\";\r\n    }\r\n\r\n    // Depending on DB result emit certain status\r\n    function checkQueryResult(string memory _result) internal {\r\n        if (hashCompareWithLengthCheck(_result, \"Error\")) {\r\n            setStatusError();\r\n            logQuery();\r\n        }\r\n        else {\r\n            setStatusPerformed();\r\n            logQuery();\r\n        }\r\n    }\r\n\r\n    // Will call emit to log the query\r\n    function logQuery() internal {\r\n        emit LogNewQuery(query, id, status);\r\n    }\r\n\r\n    function hashCompareWithLengthCheck(string memory a, string memory b) internal returns (bool) {\r\n    if(bytes(a).length != bytes(b).length) {\r\n        return false;\r\n    } else {\r\n        return keccak256(abi.encodePacked(a)) == keccak256(abi.encodePacked(b));\r\n    }\r\n}\r\n\r\n    // Function to get the status of the query\r\n    function getStatus(QueryStatus _status) internal pure returns (string memory) {\r\n        // Check the current status and return the correct name\r\n        if (QueryStatus.Pending == _status) return \"Pending\";\r\n        if (QueryStatus.Performed == _status) return \"Performed\";\r\n        if (QueryStatus.Error == _status) return \"Error\";\r\n    }\r\n\r\n   // Get status of your query\r\n    function Status() public view returns (string memory) {\r\n        QueryStatus _status = status;\r\n        return getStatus(_status);\r\n    }\r\n\r\n    // Set status to error\r\n    function setStatusError() internal {\r\n        status = QueryStatus.Error;\r\n    }\r\n\r\n    // Set status to performed\r\n    function setStatusPerformed() internal {\r\n        status = QueryStatus.Performed;\r\n    }\r\n\r\n}",
  "sourcePath": "d:\\Blockchain\\block-DB\\contracts\\Database.sol",
  "compiler": {
    "name": "solc",
    "version": "0.5.16+commit.9c3226ce.Emscripten.clang"
  },
  "schemaVersion": "3.4.3",
  "updatedAt": "2021-10-26T16:42:34.159Z",
  "networkType": "ethereum",
  "devdoc": {
    "methods": {}
  },
  "userdoc": {
    "methods": {}
  }
}